{
  "transactions": [
    {
      "hash": "0x3fb3696034f41183cee91f22bee11049fe48db2e4929bb2fa808f4b4ae76544e",
      "transactionType": "CALL",
      "contractName": null,
      "contractAddress": "0x0b9d5d9136855f6fec3c0993fee6e9ce8a297846",
      "function": "transfer(address,uint256)",
      "arguments": [
        "0xA28B84Bdb9166CB54aB10e70A445D43275bCBb73",
        "2000000000000000000"
      ],
      "transaction": {
        "from": "0x7e8d7bfd6cc6b05d056f2e46860d95038f2e3234",
        "to": "0x0b9d5d9136855f6fec3c0993fee6e9ce8a297846",
        "gas": "0x1287c",
        "value": "0x0",
        "input": "0xa9059cbb000000000000000000000000a28b84bdb9166cb54ab10e70a445d43275bcbb730000000000000000000000000000000000000000000000001bc16d674ec80000",
        "nonce": "0x1de",
        "chainId": "0xa869"
      },
      "additionalContracts": [],
      "isFixedGasLimit": false
    },
    {
      "hash": "0x98d45676bbc379c1103f028774d9cbb755b47e26e13592864145288ce9724b55",
      "transactionType": "CALL",
      "contractName": null,
      "contractAddress": "0x5425890298aed601595a70ab815c96711a31bc65",
      "function": "transfer(address,uint256)",
      "arguments": [
        "0xA28B84Bdb9166CB54aB10e70A445D43275bCBb73",
        "1000000"
      ],
      "transaction": {
        "from": "0x7e8d7bfd6cc6b05d056f2e46860d95038f2e3234",
        "to": "0x5425890298aed601595a70ab815c96711a31bc65",
        "gas": "0x14f5f",
        "value": "0x0",
        "input": "0xa9059cbb000000000000000000000000a28b84bdb9166cb54ab10e70a445d43275bcbb7300000000000000000000000000000000000000000000000000000000000f4240",
        "nonce": "0x1df",
        "chainId": "0xa869"
      },
      "additionalContracts": [],
      "isFixedGasLimit": false
    },
    {
      "hash": "0xf00de034ac95e2a65b2c2e8cafba0f6f194e621129be116ee3e5ec526d62d3b2",
      "transactionType": "CALL",
      "contractName": null,
      "contractAddress": "0xa28b84bdb9166cb54ab10e70a445d43275bcbb73",
      "function": "sendMessage(address,uint256)",
      "arguments": [
        "0x93ea719a9665d1d8f1eAAB7E03458Cf018bcee92",
        "1000000"
      ],
      "transaction": {
        "from": "0x7e8d7bfd6cc6b05d056f2e46860d95038f2e3234",
        "to": "0xa28b84bdb9166cb54ab10e70a445d43275bcbb73",
        "gas": "0x70352",
        "value": "0x0",
        "input": "0xf9d53aeb00000000000000000000000093ea719a9665d1d8f1eaab7e03458cf018bcee9200000000000000000000000000000000000000000000000000000000000f4240",
        "nonce": "0x1e0",
        "chainId": "0xa869"
      },
      "additionalContracts": [],
      "isFixedGasLimit": false
    }
  ],
  "receipts": [
    {
      "status": "0x1",
      "cumulativeGasUsed": "0xcaba",
      "logs": [
        {
          "address": "0x0b9d5d9136855f6fec3c0993fee6e9ce8a297846",
          "topics": [
            "0xddf252ad1be2c89b69c2b068fc378daa952ba7f163c4a11628f55a4df523b3ef",
            "0x0000000000000000000000007e8d7bfd6cc6b05d056f2e46860d95038f2e3234",
            "0x000000000000000000000000a28b84bdb9166cb54ab10e70a445d43275bcbb73"
          ],
          "data": "0x0000000000000000000000000000000000000000000000001bc16d674ec80000",
          "blockHash": "0xabe20f93ac32eee2090bb284e90f1e3b2068fddeeb649e46b38c95a674dbfc57",
          "blockNumber": "0x229204f",
          "transactionHash": "0x3fb3696034f41183cee91f22bee11049fe48db2e4929bb2fa808f4b4ae76544e",
          "transactionIndex": "0x0",
          "logIndex": "0x0",
          "removed": false
        }
      ],
      "logsBloom": "0x01000000000000000000000000000000000000000000000000000000000000000000800000000080000000000000000000000000000000000000000000000000000000004000000000000008000000000000000000801000000000000000000000000000000000000000000000000000000000000000000000000010000000000000000000000000000000000000000000000000000000000000000000000000000000000000000200000000000000000000000000000000000000000000000000000002000000000000000000000000000000000000000800000000000000000000000000000000000080000000000000000000000000000000000000000000",
      "type": "0x2",
      "transactionHash": "0x3fb3696034f41183cee91f22bee11049fe48db2e4929bb2fa808f4b4ae76544e",
      "transactionIndex": "0x0",
      "blockHash": "0xabe20f93ac32eee2090bb284e90f1e3b2068fddeeb649e46b38c95a674dbfc57",
      "blockNumber": "0x229204f",
      "gasUsed": "0xcaba",
      "effectiveGasPrice": "0x6bbe2b280",
      "from": "0x7e8d7bfd6cc6b05d056f2e46860d95038f2e3234",
      "to": "0x0b9d5d9136855f6fec3c0993fee6e9ce8a297846",
      "contractAddress": null
    },
    {
      "status": "0x1",
      "cumulativeGasUsed": "0x1bd89",
      "logs": [
        {
          "address": "0x5425890298aed601595a70ab815c96711a31bc65",
          "topics": [
            "0xddf252ad1be2c89b69c2b068fc378daa952ba7f163c4a11628f55a4df523b3ef",
            "0x0000000000000000000000007e8d7bfd6cc6b05d056f2e46860d95038f2e3234",
            "0x000000000000000000000000a28b84bdb9166cb54ab10e70a445d43275bcbb73"
          ],
          "data": "0x00000000000000000000000000000000000000000000000000000000000f4240",
          "blockHash": "0xabe20f93ac32eee2090bb284e90f1e3b2068fddeeb649e46b38c95a674dbfc57",
          "blockNumber": "0x229204f",
          "transactionHash": "0x98d45676bbc379c1103f028774d9cbb755b47e26e13592864145288ce9724b55",
          "transactionIndex": "0x1",
          "logIndex": "0x1",
          "removed": false
        }
      ],
      "logsBloom": "0x00000000000000000000000000000000000040000000000000000000000000000000800000000080000000000000000000008000000000000000000000000000000000004000000000000008000000000000000000801000000000000000000000000000000000000000000000000000000000000000000000400010000000000000000000000000000000000000000000000000000000000000000000000000000000000000000000000000000000000000000000000000000000000000000000000002000000000000000000000000000000000000000000000000000000000000000000000000000080000000000000000000000000000000000000000000",
      "type": "0x2",
      "transactionHash": "0x98d45676bbc379c1103f028774d9cbb755b47e26e13592864145288ce9724b55",
      "transactionIndex": "0x1",
      "blockHash": "0xabe20f93ac32eee2090bb284e90f1e3b2068fddeeb649e46b38c95a674dbfc57",
      "blockNumber": "0x229204f",
      "gasUsed": "0xf2cf",
      "effectiveGasPrice": "0x6bbe2b280",
      "from": "0x7e8d7bfd6cc6b05d056f2e46860d95038f2e3234",
      "to": "0x5425890298aed601595a70ab815c96711a31bc65",
      "contractAddress": null
    },
    {
      "status": "0x1",
      "cumulativeGasUsed": "0x81642",
      "logs": [
        {
          "address": "0x0b9d5d9136855f6fec3c0993fee6e9ce8a297846",
          "topics": [
            "0x8c5be1e5ebec7d5bd14f71427d1e84f3dd0314c0f7b2291e5b200ac8c7c3b925",
            "0x000000000000000000000000a28b84bdb9166cb54ab10e70a445d43275bcbb73",
            "0x000000000000000000000000f694e193200268f9a4868e4aa017a0118c9a8177"
          ],
          "data": "0x000000000000000000000000000000000000000000000000117dde1afc8851ab",
          "blockHash": "0xabe20f93ac32eee2090bb284e90f1e3b2068fddeeb649e46b38c95a674dbfc57",
          "blockNumber": "0x229204f",
          "transactionHash": "0xf00de034ac95e2a65b2c2e8cafba0f6f194e621129be116ee3e5ec526d62d3b2",
          "transactionIndex": "0x2",
          "logIndex": "0x2",
          "removed": false
        },
        {
          "address": "0x5425890298aed601595a70ab815c96711a31bc65",
          "topics": [
            "0x8c5be1e5ebec7d5bd14f71427d1e84f3dd0314c0f7b2291e5b200ac8c7c3b925",
            "0x000000000000000000000000a28b84bdb9166cb54ab10e70a445d43275bcbb73",
            "0x000000000000000000000000f694e193200268f9a4868e4aa017a0118c9a8177"
          ],
          "data": "0x00000000000000000000000000000000000000000000000000000000000f4240",
          "blockHash": "0xabe20f93ac32eee2090bb284e90f1e3b2068fddeeb649e46b38c95a674dbfc57",
          "blockNumber": "0x229204f",
          "transactionHash": "0xf00de034ac95e2a65b2c2e8cafba0f6f194e621129be116ee3e5ec526d62d3b2",
          "transactionIndex": "0x2",
          "logIndex": "0x3",
          "removed": false
        },
        {
          "address": "0x0b9d5d9136855f6fec3c0993fee6e9ce8a297846",
          "topics": [
            "0xddf252ad1be2c89b69c2b068fc378daa952ba7f163c4a11628f55a4df523b3ef",
            "0x000000000000000000000000a28b84bdb9166cb54ab10e70a445d43275bcbb73",
            "0x00000000000000000000000075b9a75ee1ffef6be7c4f842a041de7c6153cf4e"
          ],
          "data": "0x000000000000000000000000000000000000000000000000117dde1afc8851ab",
          "blockHash": "0xabe20f93ac32eee2090bb284e90f1e3b2068fddeeb649e46b38c95a674dbfc57",
          "blockNumber": "0x229204f",
          "transactionHash": "0xf00de034ac95e2a65b2c2e8cafba0f6f194e621129be116ee3e5ec526d62d3b2",
          "transactionIndex": "0x2",
          "logIndex": "0x4",
          "removed": false
        },
        {
          "address": "0x5425890298aed601595a70ab815c96711a31bc65",
          "topics": [
            "0xddf252ad1be2c89b69c2b068fc378daa952ba7f163c4a11628f55a4df523b3ef",
            "0x000000000000000000000000a28b84bdb9166cb54ab10e70a445d43275bcbb73",
            "0x000000000000000000000000f63fbe07846176211a5fb1513bc12f7ecbd328d3"
          ],
          "data": "0x00000000000000000000000000000000000000000000000000000000000f4240",
          "blockHash": "0xabe20f93ac32eee2090bb284e90f1e3b2068fddeeb649e46b38c95a674dbfc57",
          "blockNumber": "0x229204f",
          "transactionHash": "0xf00de034ac95e2a65b2c2e8cafba0f6f194e621129be116ee3e5ec526d62d3b2",
          "transactionIndex": "0x2",
          "logIndex": "0x5",
          "removed": false
        },
        {
          "address": "0xf63fbe07846176211a5fb1513bc12f7ecbd328d3",
          "topics": [
            "0x1871cdf8010e63f2eb8384381a68dfa7416dc571a5517e66e88b2d2d0c0a690a"
          ],
          "data": "0x00000000000000000000000000000000000000000000000000000000000f4240",
          "blockHash": "0xabe20f93ac32eee2090bb284e90f1e3b2068fddeeb649e46b38c95a674dbfc57",
          "blockNumber": "0x229204f",
          "transactionHash": "0xf00de034ac95e2a65b2c2e8cafba0f6f194e621129be116ee3e5ec526d62d3b2",
          "transactionIndex": "0x2",
          "logIndex": "0x6",
          "removed": false
        },
        {
          "address": "0x5425890298aed601595a70ab815c96711a31bc65",
          "topics": [
            "0xddf252ad1be2c89b69c2b068fc378daa952ba7f163c4a11628f55a4df523b3ef",
            "0x000000000000000000000000f63fbe07846176211a5fb1513bc12f7ecbd328d3",
            "0x0000000000000000000000004ed8867f9947a5fe140c9dc1c6f207f3489f501e"
          ],
          "data": "0x00000000000000000000000000000000000000000000000000000000000f4240",
          "blockHash": "0xabe20f93ac32eee2090bb284e90f1e3b2068fddeeb649e46b38c95a674dbfc57",
          "blockNumber": "0x229204f",
          "transactionHash": "0xf00de034ac95e2a65b2c2e8cafba0f6f194e621129be116ee3e5ec526d62d3b2",
          "transactionIndex": "0x2",
          "logIndex": "0x7",
          "removed": false
        },
        {
          "address": "0x5425890298aed601595a70ab815c96711a31bc65",
          "topics": [
            "0xcc16f5dbb4873280815c1ee09dbd06736cffcc184412cf7a71a0fdb75d397ca5",
            "0x0000000000000000000000004ed8867f9947a5fe140c9dc1c6f207f3489f501e"
          ],
          "data": "0x00000000000000000000000000000000000000000000000000000000000f4240",
          "blockHash": "0xabe20f93ac32eee2090bb284e90f1e3b2068fddeeb649e46b38c95a674dbfc57",
          "blockNumber": "0x229204f",
          "transactionHash": "0xf00de034ac95e2a65b2c2e8cafba0f6f194e621129be116ee3e5ec526d62d3b2",
          "transactionIndex": "0x2",
          "logIndex": "0x8",
          "removed": false
        },
        {
          "address": "0x5425890298aed601595a70ab815c96711a31bc65",
          "topics": [
            "0xddf252ad1be2c89b69c2b068fc378daa952ba7f163c4a11628f55a4df523b3ef",
            "0x0000000000000000000000004ed8867f9947a5fe140c9dc1c6f207f3489f501e",
            "0x0000000000000000000000000000000000000000000000000000000000000000"
          ],
          "data": "0x00000000000000000000000000000000000000000000000000000000000f4240",
          "blockHash": "0xabe20f93ac32eee2090bb284e90f1e3b2068fddeeb649e46b38c95a674dbfc57",
          "blockNumber": "0x229204f",
          "transactionHash": "0xf00de034ac95e2a65b2c2e8cafba0f6f194e621129be116ee3e5ec526d62d3b2",
          "transactionIndex": "0x2",
          "logIndex": "0x9",
          "removed": false
        },
        {
          "address": "0xa9fb1b3009dcb79e2fe346c16a604b8fa8ae0a79",
          "topics": [
            "0x8c5261668696ce22758910d05bab8f186d6eb247ceac2af2e82c7dc17669b036"
          ],
          "data": "0x000000000000000000000000000000000000000000000000000000000000002000000000000000000000000000000000000000000000000000000000000000f8000000000000000100000000000000000004acb4000000000000000000000000eb08f243e5d3fcff26a9e38ae5520a669f4019d00000000000000000000000009f3b8679c73c2fef8b59b4f3444d4e156fb70aa5000000000000000000000000b48eacf882dc4899ae750af4a6e2892e11866d8d000000000000000000000000000000005425890298aed601595a70ab815c96711a31bc6500000000000000000000000093ea719a9665d1d8f1eaab7e03458cf018bcee9200000000000000000000000000000000000000000000000000000000000f4240000000000000000000000000f63fbe07846176211a5fb1513bc12f7ecbd328d30000000000000000",
          "blockHash": "0xabe20f93ac32eee2090bb284e90f1e3b2068fddeeb649e46b38c95a674dbfc57",
          "blockNumber": "0x229204f",
          "transactionHash": "0xf00de034ac95e2a65b2c2e8cafba0f6f194e621129be116ee3e5ec526d62d3b2",
          "transactionIndex": "0x2",
          "logIndex": "0xa",
          "removed": false
        },
        {
          "address": "0xeb08f243e5d3fcff26a9e38ae5520a669f4019d0",
          "topics": [
            "0x2fa9ca894982930190727e75500a97d8dc500233a5065e0f3126c48fbe0343c0",
            "0x000000000000000000000000000000000000000000000000000000000004acb4",
            "0x0000000000000000000000005425890298aed601595a70ab815c96711a31bc65",
            "0x000000000000000000000000f63fbe07846176211a5fb1513bc12f7ecbd328d3"
          ],
          "data": "0x00000000000000000000000000000000000000000000000000000000000f424000000000000000000000000093ea719a9665d1d8f1eaab7e03458cf018bcee9200000000000000000000000000000000000000000000000000000000000000000000000000000000000000009f3b8679c73c2fef8b59b4f3444d4e156fb70aa5000000000000000000000000b48eacf882dc4899ae750af4a6e2892e11866d8d",
          "blockHash": "0xabe20f93ac32eee2090bb284e90f1e3b2068fddeeb649e46b38c95a674dbfc57",
          "blockNumber": "0x229204f",
          "transactionHash": "0xf00de034ac95e2a65b2c2e8cafba0f6f194e621129be116ee3e5ec526d62d3b2",
          "transactionIndex": "0x2",
          "logIndex": "0xb",
          "removed": false
        },
        {
          "address": "0xf63fbe07846176211a5fb1513bc12f7ecbd328d3",
          "topics": [
            "0x696de425f79f4a40bc6d2122ca50507f0efbeabbff86a84871b7196ab8ea8df7",
            "0x00000000000000000000000075b9a75ee1ffef6be7c4f842a041de7c6153cf4e"
          ],
          "data": "0x00000000000000000000000000000000000000000000000000000000000f4240",
          "blockHash": "0xabe20f93ac32eee2090bb284e90f1e3b2068fddeeb649e46b38c95a674dbfc57",
          "blockNumber": "0x229204f",
          "transactionHash": "0xf00de034ac95e2a65b2c2e8cafba0f6f194e621129be116ee3e5ec526d62d3b2",
          "transactionIndex": "0x2",
          "logIndex": "0xc",
          "removed": false
        },
        {
          "address": "0x75b9a75ee1ffef6be7c4f842a041de7c6153cf4e",
          "topics": [
            "0xd0c3c799bf9e2639de44391e7f524d229b2b55f5b1ea94b2bf7da42f7243dddd"
          ],
          "data": "0x0000000000000000000000000000000000000000000000000000000000000020000000000000000000000000000000000000000000000000ccf0a31a221f3c9b000000000000000000000000a28b84bdb9166cb54ab10e70a445d43275bcbb7300000000000000000000000093ea719a9665d1d8f1eaab7e03458cf018bcee92000000000000000000000000000000000000000000000000000000000000004900000000000000000000000000000000000000000000000000000000000c3500000000000000000000000000000000000000000000000000000000000000000000000000000000000000000000000000000000000000000000000000000000010000000000000000000000000b9d5d9136855f6fec3c0993fee6e9ce8a297846000000000000000000000000000000000000000000000000117dde1afc8851ab00000000000000000000000000000000000000000000000000000000000001a000000000000000000000000000000000000000000000000000000000000002200000000000000000000000000000000000000000000000000000000000000280db3bebe013da2b83e2c87752cc0c53d2e11ce54c2d54b37b9010fb7e6580a7970000000000000000000000000000000000000000000000000000000000000044c5115ff2000000000000000000000000000000000000000000000000000000000000006f00000000000000000000000000000000000000000000000000000000000000de0000000000000000000000000000000000000000000000000000000000000000000000000000000000000000000000000000000000000000000000010000000000000000000000005425890298aed601595a70ab815c96711a31bc6500000000000000000000000000000000000000000000000000000000000f42400000000000000000000000000000000000000000000000000000000000000001000000000000000000000000000000000000000000000000000000000000002000000000000000000000000000000000000000000000000000000000000001800000000000000000000000000000000000000000000000000000000000000020000000000000000000000000000000000000000000000000000000000000008000000000000000000000000000000000000000000000000000000000000000c00000000000000000000000000000000000000000000000000000000000000100000000000000000000000000000000000000000000000000000000000002bf200000000000000000000000000000000000000000000000000000000000000020000000000000000000000000f63fbe07846176211a5fb1513bc12f7ecbd328d300000000000000000000000000000000000000000000000000000000000000200000000000000000000000001c7d4b196cb0c7b01d743fbc6116a902379c72380000000000000000000000000000000000000000000000000000000000000040000000000000000000000000000000000000000000000000000000000004acb40000000000000000000000000000000000000000000000000000000000000001",
          "blockHash": "0xabe20f93ac32eee2090bb284e90f1e3b2068fddeeb649e46b38c95a674dbfc57",
          "blockNumber": "0x229204f",
          "transactionHash": "0xf00de034ac95e2a65b2c2e8cafba0f6f194e621129be116ee3e5ec526d62d3b2",
          "transactionIndex": "0x2",
          "logIndex": "0xd",
          "removed": false
        }
      ],
      "logsBloom": "0x0100000000020000000100000000000000004000000080100000000000200000000080000400028000a0000000000200000080000000000000000000002000000000000000000200000000080020000000800000000000000002002000000000000000000600000000000040000008021c0000000048080000500010000000000008000000000000000000001000000000000000000002000000000000210000020000000000000604100000000000000280000000000820000100100000000000000002000010000400000000000000000000000040000800000000000020000010000400000000000080000000004004000200000000000000000100000000",
      "type": "0x2",
      "transactionHash": "0xf00de034ac95e2a65b2c2e8cafba0f6f194e621129be116ee3e5ec526d62d3b2",
      "transactionIndex": "0x2",
      "blockHash": "0xabe20f93ac32eee2090bb284e90f1e3b2068fddeeb649e46b38c95a674dbfc57",
      "blockNumber": "0x229204f",
      "gasUsed": "0x658b9",
      "effectiveGasPrice": "0x6bbe2b280",
      "from": "0x7e8d7bfd6cc6b05d056f2e46860d95038f2e3234",
      "to": "0xa28b84bdb9166cb54ab10e70a445d43275bcbb73",
      "contractAddress": null
    }
  ],
  "libraries": [],
  "pending": [],
  "returns": {},
  "timestamp": 1728621376,
  "chain": 43113,
  "commit": "8356039"
}