{
  "transactions": [
    {
      "hash": "0x9aafdf1899afff3337bd13117651c61ed5ceebaef7e435fd73bc6ac14445eba8",
      "transactionType": "CALL",
      "contractName": null,
      "contractAddress": "0x0b9d5d9136855f6fec3c0993fee6e9ce8a297846",
      "function": "transfer(address,uint256)",
      "arguments": [
        "0xC556118932c7057efC18d37F2C636316575559f7",
        "1000000000000000000"
      ],
      "transaction": {
        "from": "0x7e8d7bfd6cc6b05d056f2e46860d95038f2e3234",
        "to": "0x0b9d5d9136855f6fec3c0993fee6e9ce8a297846",
        "gas": "0x1287c",
        "value": "0x0",
        "input": "0xa9059cbb000000000000000000000000c556118932c7057efc18d37f2c636316575559f70000000000000000000000000000000000000000000000000de0b6b3a7640000",
        "nonce": "0x1da",
        "chainId": "0xa869"
      },
      "additionalContracts": [],
      "isFixedGasLimit": false
    },
    {
      "hash": "0x701639b942892fc6f56490c578a47150fc181a1a7a10dcbcad581d7440cb8d60",
      "transactionType": "CALL",
      "contractName": null,
      "contractAddress": "0x5425890298aed601595a70ab815c96711a31bc65",
      "function": "transfer(address,uint256)",
      "arguments": [
        "0xC556118932c7057efC18d37F2C636316575559f7",
        "1000000"
      ],
      "transaction": {
        "from": "0x7e8d7bfd6cc6b05d056f2e46860d95038f2e3234",
        "to": "0x5425890298aed601595a70ab815c96711a31bc65",
        "gas": "0x14f5f",
        "value": "0x0",
        "input": "0xa9059cbb000000000000000000000000c556118932c7057efc18d37f2c636316575559f700000000000000000000000000000000000000000000000000000000000f4240",
        "nonce": "0x1db",
        "chainId": "0xa869"
      },
      "additionalContracts": [],
      "isFixedGasLimit": false
    },
    {
      "hash": "0x119242e7fa51b968069f7fc39c5958d12df082f17506c0baff8aa85376c1bf95",
      "transactionType": "CALL",
      "contractName": null,
      "contractAddress": "0xc556118932c7057efc18d37f2c636316575559f7",
      "function": "sendMessage(address,uint256)",
      "arguments": [
        "0xDF17Ba7a6F072189ecC91DAA978959f17651C8a0",
        "1000000"
      ],
      "transaction": {
        "from": "0x7e8d7bfd6cc6b05d056f2e46860d95038f2e3234",
        "to": "0xc556118932c7057efc18d37f2c636316575559f7",
        "gas": "0x70352",
        "value": "0x0",
        "input": "0xf9d53aeb000000000000000000000000df17ba7a6f072189ecc91daa978959f17651c8a000000000000000000000000000000000000000000000000000000000000f4240",
        "nonce": "0x1dc",
        "chainId": "0xa869"
      },
      "additionalContracts": [],
      "isFixedGasLimit": false
    }
  ],
  "receipts": [
    {
      "status": "0x1",
      "cumulativeGasUsed": "0xcaba",
      "logs": [
        {
          "address": "0x0b9d5d9136855f6fec3c0993fee6e9ce8a297846",
          "topics": [
            "0xddf252ad1be2c89b69c2b068fc378daa952ba7f163c4a11628f55a4df523b3ef",
            "0x0000000000000000000000007e8d7bfd6cc6b05d056f2e46860d95038f2e3234",
            "0x000000000000000000000000c556118932c7057efc18d37f2c636316575559f7"
          ],
          "data": "0x0000000000000000000000000000000000000000000000000de0b6b3a7640000",
          "blockHash": "0x7cb3c7683538b4d0397a8de1a6800177579dd6b60545db5bf26f964efca47a10",
          "blockNumber": "0x2291ec5",
          "transactionHash": "0x9aafdf1899afff3337bd13117651c61ed5ceebaef7e435fd73bc6ac14445eba8",
          "transactionIndex": "0x0",
          "logIndex": "0x0",
          "removed": false
        }
      ],
      "logsBloom": "0x01000000000000000000000000000000000000000000000000000000000000000000000000000000000000000000000008000000000000000000000000000000000000004000000000000008000000000000000000801000000000000000000000000000000000000000000000000000000000000000000000000010000000000000000000000000000000000000000000000000000000000000000000000000000008000000000200000000000000000000000000000000000000000000000000000002000000000000000000000000000000000000000800000000000800000000000000000000000000000000000000000000000000000000000000000000",
      "type": "0x2",
      "transactionHash": "0x9aafdf1899afff3337bd13117651c61ed5ceebaef7e435fd73bc6ac14445eba8",
      "transactionIndex": "0x0",
      "blockHash": "0x7cb3c7683538b4d0397a8de1a6800177579dd6b60545db5bf26f964efca47a10",
      "blockNumber": "0x2291ec5",
      "gasUsed": "0xcaba",
      "effectiveGasPrice": "0x6bbe2b280",
      "from": "0x7e8d7bfd6cc6b05d056f2e46860d95038f2e3234",
      "to": "0x0b9d5d9136855f6fec3c0993fee6e9ce8a297846",
      "contractAddress": null
    },
    {
      "status": "0x1",
      "cumulativeGasUsed": "0x1bd89",
      "logs": [
        {
          "address": "0x5425890298aed601595a70ab815c96711a31bc65",
          "topics": [
            "0xddf252ad1be2c89b69c2b068fc378daa952ba7f163c4a11628f55a4df523b3ef",
            "0x0000000000000000000000007e8d7bfd6cc6b05d056f2e46860d95038f2e3234",
            "0x000000000000000000000000c556118932c7057efc18d37f2c636316575559f7"
          ],
          "data": "0x00000000000000000000000000000000000000000000000000000000000f4240",
          "blockHash": "0x7cb3c7683538b4d0397a8de1a6800177579dd6b60545db5bf26f964efca47a10",
          "blockNumber": "0x2291ec5",
          "transactionHash": "0x701639b942892fc6f56490c578a47150fc181a1a7a10dcbcad581d7440cb8d60",
          "transactionIndex": "0x1",
          "logIndex": "0x1",
          "removed": false
        }
      ],
      "logsBloom": "0x00000000000000000000000000000000000040000000000000000000000000000000000000000000000000000000000008008000000000000000000000000000000000004000000000000008000000000000000000801000000000000000000000000000000000000000000000000000000000000000000000400010000000000000000000000000000000000000000000000000000000000000000000000000000008000000000000000000000000000000000000000000000000000000000000000002000000000000000000000000000000000000000000000000000800000000000000000000000000000000000000000000000000000000000000000000",
      "type": "0x2",
      "transactionHash": "0x701639b942892fc6f56490c578a47150fc181a1a7a10dcbcad581d7440cb8d60",
      "transactionIndex": "0x1",
      "blockHash": "0x7cb3c7683538b4d0397a8de1a6800177579dd6b60545db5bf26f964efca47a10",
      "blockNumber": "0x2291ec5",
      "gasUsed": "0xf2cf",
      "effectiveGasPrice": "0x6bbe2b280",
      "from": "0x7e8d7bfd6cc6b05d056f2e46860d95038f2e3234",
      "to": "0x5425890298aed601595a70ab815c96711a31bc65",
      "contractAddress": null
    },
    {
      "status": "0x1",
      "cumulativeGasUsed": "0x81642",
      "logs": [
        {
          "address": "0x0b9d5d9136855f6fec3c0993fee6e9ce8a297846",
          "topics": [
            "0x8c5be1e5ebec7d5bd14f71427d1e84f3dd0314c0f7b2291e5b200ac8c7c3b925",
            "0x000000000000000000000000c556118932c7057efc18d37f2c636316575559f7",
            "0x000000000000000000000000f694e193200268f9a4868e4aa017a0118c9a8177"
          ],
          "data": "0x0000000000000000000000000000000000000000000000000054113978c5f979",
          "blockHash": "0x7cb3c7683538b4d0397a8de1a6800177579dd6b60545db5bf26f964efca47a10",
          "blockNumber": "0x2291ec5",
          "transactionHash": "0x119242e7fa51b968069f7fc39c5958d12df082f17506c0baff8aa85376c1bf95",
          "transactionIndex": "0x2",
          "logIndex": "0x2",
          "removed": false
        },
        {
          "address": "0x5425890298aed601595a70ab815c96711a31bc65",
          "topics": [
            "0x8c5be1e5ebec7d5bd14f71427d1e84f3dd0314c0f7b2291e5b200ac8c7c3b925",
            "0x000000000000000000000000c556118932c7057efc18d37f2c636316575559f7",
            "0x000000000000000000000000f694e193200268f9a4868e4aa017a0118c9a8177"
          ],
          "data": "0x00000000000000000000000000000000000000000000000000000000000f4240",
          "blockHash": "0x7cb3c7683538b4d0397a8de1a6800177579dd6b60545db5bf26f964efca47a10",
          "blockNumber": "0x2291ec5",
          "transactionHash": "0x119242e7fa51b968069f7fc39c5958d12df082f17506c0baff8aa85376c1bf95",
          "transactionIndex": "0x2",
          "logIndex": "0x3",
          "removed": false
        },
        {
          "address": "0x0b9d5d9136855f6fec3c0993fee6e9ce8a297846",
          "topics": [
            "0xddf252ad1be2c89b69c2b068fc378daa952ba7f163c4a11628f55a4df523b3ef",
            "0x000000000000000000000000c556118932c7057efc18d37f2c636316575559f7",
            "0x00000000000000000000000075b9a75ee1ffef6be7c4f842a041de7c6153cf4e"
          ],
          "data": "0x0000000000000000000000000000000000000000000000000054113978c5f979",
          "blockHash": "0x7cb3c7683538b4d0397a8de1a6800177579dd6b60545db5bf26f964efca47a10",
          "blockNumber": "0x2291ec5",
          "transactionHash": "0x119242e7fa51b968069f7fc39c5958d12df082f17506c0baff8aa85376c1bf95",
          "transactionIndex": "0x2",
          "logIndex": "0x4",
          "removed": false
        },
        {
          "address": "0x5425890298aed601595a70ab815c96711a31bc65",
          "topics": [
            "0xddf252ad1be2c89b69c2b068fc378daa952ba7f163c4a11628f55a4df523b3ef",
            "0x000000000000000000000000c556118932c7057efc18d37f2c636316575559f7",
            "0x000000000000000000000000f63fbe07846176211a5fb1513bc12f7ecbd328d3"
          ],
          "data": "0x00000000000000000000000000000000000000000000000000000000000f4240",
          "blockHash": "0x7cb3c7683538b4d0397a8de1a6800177579dd6b60545db5bf26f964efca47a10",
          "blockNumber": "0x2291ec5",
          "transactionHash": "0x119242e7fa51b968069f7fc39c5958d12df082f17506c0baff8aa85376c1bf95",
          "transactionIndex": "0x2",
          "logIndex": "0x5",
          "removed": false
        },
        {
          "address": "0xf63fbe07846176211a5fb1513bc12f7ecbd328d3",
          "topics": [
            "0x1871cdf8010e63f2eb8384381a68dfa7416dc571a5517e66e88b2d2d0c0a690a"
          ],
          "data": "0x00000000000000000000000000000000000000000000000000000000000f4240",
          "blockHash": "0x7cb3c7683538b4d0397a8de1a6800177579dd6b60545db5bf26f964efca47a10",
          "blockNumber": "0x2291ec5",
          "transactionHash": "0x119242e7fa51b968069f7fc39c5958d12df082f17506c0baff8aa85376c1bf95",
          "transactionIndex": "0x2",
          "logIndex": "0x6",
          "removed": false
        },
        {
          "address": "0x5425890298aed601595a70ab815c96711a31bc65",
          "topics": [
            "0xddf252ad1be2c89b69c2b068fc378daa952ba7f163c4a11628f55a4df523b3ef",
            "0x000000000000000000000000f63fbe07846176211a5fb1513bc12f7ecbd328d3",
            "0x0000000000000000000000004ed8867f9947a5fe140c9dc1c6f207f3489f501e"
          ],
          "data": "0x00000000000000000000000000000000000000000000000000000000000f4240",
          "blockHash": "0x7cb3c7683538b4d0397a8de1a6800177579dd6b60545db5bf26f964efca47a10",
          "blockNumber": "0x2291ec5",
          "transactionHash": "0x119242e7fa51b968069f7fc39c5958d12df082f17506c0baff8aa85376c1bf95",
          "transactionIndex": "0x2",
          "logIndex": "0x7",
          "removed": false
        },
        {
          "address": "0x5425890298aed601595a70ab815c96711a31bc65",
          "topics": [
            "0xcc16f5dbb4873280815c1ee09dbd06736cffcc184412cf7a71a0fdb75d397ca5",
            "0x0000000000000000000000004ed8867f9947a5fe140c9dc1c6f207f3489f501e"
          ],
          "data": "0x00000000000000000000000000000000000000000000000000000000000f4240",
          "blockHash": "0x7cb3c7683538b4d0397a8de1a6800177579dd6b60545db5bf26f964efca47a10",
          "blockNumber": "0x2291ec5",
          "transactionHash": "0x119242e7fa51b968069f7fc39c5958d12df082f17506c0baff8aa85376c1bf95",
          "transactionIndex": "0x2",
          "logIndex": "0x8",
          "removed": false
        },
        {
          "address": "0x5425890298aed601595a70ab815c96711a31bc65",
          "topics": [
            "0xddf252ad1be2c89b69c2b068fc378daa952ba7f163c4a11628f55a4df523b3ef",
            "0x0000000000000000000000004ed8867f9947a5fe140c9dc1c6f207f3489f501e",
            "0x0000000000000000000000000000000000000000000000000000000000000000"
          ],
          "data": "0x00000000000000000000000000000000000000000000000000000000000f4240",
          "blockHash": "0x7cb3c7683538b4d0397a8de1a6800177579dd6b60545db5bf26f964efca47a10",
          "blockNumber": "0x2291ec5",
          "transactionHash": "0x119242e7fa51b968069f7fc39c5958d12df082f17506c0baff8aa85376c1bf95",
          "transactionIndex": "0x2",
          "logIndex": "0x9",
          "removed": false
        },
        {
          "address": "0xa9fb1b3009dcb79e2fe346c16a604b8fa8ae0a79",
          "topics": [
            "0x8c5261668696ce22758910d05bab8f186d6eb247ceac2af2e82c7dc17669b036"
          ],
          "data": "0x000000000000000000000000000000000000000000000000000000000000002000000000000000000000000000000000000000000000000000000000000000f8000000000000000100000000000000000004acb1000000000000000000000000eb08f243e5d3fcff26a9e38ae5520a669f4019d00000000000000000000000009f3b8679c73c2fef8b59b4f3444d4e156fb70aa5000000000000000000000000b48eacf882dc4899ae750af4a6e2892e11866d8d000000000000000000000000000000005425890298aed601595a70ab815c96711a31bc65000000000000000000000000df17ba7a6f072189ecc91daa978959f17651c8a000000000000000000000000000000000000000000000000000000000000f4240000000000000000000000000f63fbe07846176211a5fb1513bc12f7ecbd328d30000000000000000",
          "blockHash": "0x7cb3c7683538b4d0397a8de1a6800177579dd6b60545db5bf26f964efca47a10",
          "blockNumber": "0x2291ec5",
          "transactionHash": "0x119242e7fa51b968069f7fc39c5958d12df082f17506c0baff8aa85376c1bf95",
          "transactionIndex": "0x2",
          "logIndex": "0xa",
          "removed": false
        },
        {
          "address": "0xeb08f243e5d3fcff26a9e38ae5520a669f4019d0",
          "topics": [
            "0x2fa9ca894982930190727e75500a97d8dc500233a5065e0f3126c48fbe0343c0",
            "0x000000000000000000000000000000000000000000000000000000000004acb1",
            "0x0000000000000000000000005425890298aed601595a70ab815c96711a31bc65",
            "0x000000000000000000000000f63fbe07846176211a5fb1513bc12f7ecbd328d3"
          ],
          "data": "0x00000000000000000000000000000000000000000000000000000000000f4240000000000000000000000000df17ba7a6f072189ecc91daa978959f17651c8a000000000000000000000000000000000000000000000000000000000000000000000000000000000000000009f3b8679c73c2fef8b59b4f3444d4e156fb70aa5000000000000000000000000b48eacf882dc4899ae750af4a6e2892e11866d8d",
          "blockHash": "0x7cb3c7683538b4d0397a8de1a6800177579dd6b60545db5bf26f964efca47a10",
          "blockNumber": "0x2291ec5",
          "transactionHash": "0x119242e7fa51b968069f7fc39c5958d12df082f17506c0baff8aa85376c1bf95",
          "transactionIndex": "0x2",
          "logIndex": "0xb",
          "removed": false
        },
        {
          "address": "0xf63fbe07846176211a5fb1513bc12f7ecbd328d3",
          "topics": [
            "0x696de425f79f4a40bc6d2122ca50507f0efbeabbff86a84871b7196ab8ea8df7",
            "0x00000000000000000000000075b9a75ee1ffef6be7c4f842a041de7c6153cf4e"
          ],
          "data": "0x00000000000000000000000000000000000000000000000000000000000f4240",
          "blockHash": "0x7cb3c7683538b4d0397a8de1a6800177579dd6b60545db5bf26f964efca47a10",
          "blockNumber": "0x2291ec5",
          "transactionHash": "0x119242e7fa51b968069f7fc39c5958d12df082f17506c0baff8aa85376c1bf95",
          "transactionIndex": "0x2",
          "logIndex": "0xc",
          "removed": false
        },
        {
          "address": "0x75b9a75ee1ffef6be7c4f842a041de7c6153cf4e",
          "topics": [
            "0xd0c3c799bf9e2639de44391e7f524d229b2b55f5b1ea94b2bf7da42f7243dddd"
          ],
          "data": "0x0000000000000000000000000000000000000000000000000000000000000020000000000000000000000000000000000000000000000000ccf0a31a221f3c9b000000000000000000000000c556118932c7057efc18d37f2c636316575559f7000000000000000000000000df17ba7a6f072189ecc91daa978959f17651c8a0000000000000000000000000000000000000000000000000000000000000004800000000000000000000000000000000000000000000000000000000000c3500000000000000000000000000000000000000000000000000000000000000000000000000000000000000000000000000000000000000000000000000000000010000000000000000000000000b9d5d9136855f6fec3c0993fee6e9ce8a2978460000000000000000000000000000000000000000000000000054113978c5f97900000000000000000000000000000000000000000000000000000000000001a00000000000000000000000000000000000000000000000000000000000000220000000000000000000000000000000000000000000000000000000000000028097e9ddc8231b6dbe37fe65dc903478326a24ed71a959593bc3c71d5431dd7f180000000000000000000000000000000000000000000000000000000000000044c5115ff2000000000000000000000000000000000000000000000000000000000000006f00000000000000000000000000000000000000000000000000000000000000de0000000000000000000000000000000000000000000000000000000000000000000000000000000000000000000000000000000000000000000000010000000000000000000000005425890298aed601595a70ab815c96711a31bc6500000000000000000000000000000000000000000000000000000000000f42400000000000000000000000000000000000000000000000000000000000000001000000000000000000000000000000000000000000000000000000000000002000000000000000000000000000000000000000000000000000000000000001800000000000000000000000000000000000000000000000000000000000000020000000000000000000000000000000000000000000000000000000000000008000000000000000000000000000000000000000000000000000000000000000c00000000000000000000000000000000000000000000000000000000000000100000000000000000000000000000000000000000000000000000000000002bf200000000000000000000000000000000000000000000000000000000000000020000000000000000000000000f63fbe07846176211a5fb1513bc12f7ecbd328d300000000000000000000000000000000000000000000000000000000000000200000000000000000000000001c7d4b196cb0c7b01d743fbc6116a902379c72380000000000000000000000000000000000000000000000000000000000000040000000000000000000000000000000000000000000000000000000000004acb10000000000000000000000000000000000000000000000000000000000000001",
          "blockHash": "0x7cb3c7683538b4d0397a8de1a6800177579dd6b60545db5bf26f964efca47a10",
          "blockNumber": "0x2291ec5",
          "transactionHash": "0x119242e7fa51b968069f7fc39c5958d12df082f17506c0baff8aa85376c1bf95",
          "transactionIndex": "0x2",
          "logIndex": "0xd",
          "removed": false
        }
      ],
      "logsBloom": "0x0100000000020000000100000000000000004008000080100000000000200000000000000400020000a0000000000200080080000000000000000000002000000000000000000200000000080000000000800000000000000002002000000000000000000600000000000040000008021c0000000048000000500010000000000008000000000000000000001000000000000000000002000000000000210000020008000000000604100000000000000280001000001820000100100000000000000002000010000400000000000000000000000040000800000000000820000010000400000000000000000000004004000200000000000000000100000000",
      "type": "0x2",
      "transactionHash": "0x119242e7fa51b968069f7fc39c5958d12df082f17506c0baff8aa85376c1bf95",
      "transactionIndex": "0x2",
      "blockHash": "0x7cb3c7683538b4d0397a8de1a6800177579dd6b60545db5bf26f964efca47a10",
      "blockNumber": "0x2291ec5",
      "gasUsed": "0x658b9",
      "effectiveGasPrice": "0x6bbe2b280",
      "from": "0x7e8d7bfd6cc6b05d056f2e46860d95038f2e3234",
      "to": "0xc556118932c7057efc18d37f2c636316575559f7",
      "contractAddress": null
    }
  ],
  "libraries": [],
  "pending": [],
  "returns": {},
  "timestamp": 1728618091,
  "chain": 43113,
  "commit": "8356039"
}